{
  "contractName": "Crowdfounding",
  "abi": [
    {
      "inputs": [],
      "name": "isOwner",
      "outputs": [
        {
          "internalType": "bool",
          "name": "",
          "type": "bool"
        }
      ],
      "stateMutability": "view",
      "type": "function",
      "constant": true
    },
    {
      "inputs": [
        {
          "internalType": "uint256",
          "name": "",
          "type": "uint256"
        }
      ],
      "name": "items",
      "outputs": [
        {
          "internalType": "bool",
          "name": "_isOpen",
          "type": "bool"
        },
        {
          "internalType": "uint256",
          "name": "_target",
          "type": "uint256"
        },
        {
          "internalType": "uint256",
          "name": "_collected",
          "type": "uint256"
        }
      ],
      "stateMutability": "view",
      "type": "function",
      "constant": true
    },
    {
      "inputs": [
        {
          "internalType": "uint256",
          "name": "_id",
          "type": "uint256"
        },
        {
          "internalType": "uint256",
          "name": "_target",
          "type": "uint256"
        }
      ],
      "name": "createDonation",
      "outputs": [],
      "stateMutability": "nonpayable",
      "type": "function"
    },
    {
      "inputs": [
        {
          "internalType": "uint256",
          "name": "_id",
          "type": "uint256"
        },
        {
          "internalType": "uint256",
          "name": "_target",
          "type": "uint256"
        }
      ],
      "name": "updateDonation",
      "outputs": [],
      "stateMutability": "nonpayable",
      "type": "function"
    },
    {
      "inputs": [
        {
          "internalType": "uint256",
          "name": "_id",
          "type": "uint256"
        }
      ],
      "name": "closeDonation",
      "outputs": [],
      "stateMutability": "nonpayable",
      "type": "function"
    },
    {
      "inputs": [
        {
          "internalType": "uint256",
          "name": "_id",
          "type": "uint256"
        }
      ],
      "name": "donate",
      "outputs": [],
      "stateMutability": "payable",
      "type": "function",
      "payable": true
    },
    {
      "inputs": [
        {
          "internalType": "uint256",
          "name": "_id",
          "type": "uint256"
        },
        {
          "internalType": "address payable",
          "name": "_to",
          "type": "address"
        }
      ],
      "name": "sendFunds",
      "outputs": [],
      "stateMutability": "payable",
      "type": "function",
      "payable": true
    }
  ],
  "bytecode": "0x6080604052336000806101000a81548173ffffffffffffffffffffffffffffffffffffffff021916908373ffffffffffffffffffffffffffffffffffffffff16021790555061075c806100536000396000f3fe6080604052600436106100705760003560e01c8063b26867741161004e578063b268677414610124578063bfb231d214610172578063f14faf6f146101d3578063f5f6516c1461020157610070565b80635ac45346146100755780638f32d59b146100ba578063a19b1007146100e9575b600080fd5b34801561008157600080fd5b506100b86004803603604081101561009857600080fd5b810190808035906020019092919080359060200190929190505050610246565b005b3480156100c657600080fd5b506100cf6102df565b604051808215151515815260200191505060405180910390f35b3480156100f557600080fd5b506101226004803603602081101561010c57600080fd5b8101908080359060200190929190505050610336565b005b6101706004803603604081101561013a57600080fd5b8101908080359060200190929190803573ffffffffffffffffffffffffffffffffffffffff1690602001909291905050506103e2565b005b34801561017e57600080fd5b506101ab6004803603602081101561019557600080fd5b81019080803590602001909291905050506104ca565b6040518084151515158152602001838152602001828152602001935050505060405180910390f35b6101ff600480360360208110156101e957600080fd5b8101908080359060200190929190505050610501565b005b34801561020d57600080fd5b506102446004803603604081101561022457600080fd5b81019080803590602001909291908035906020019092919050505061065f565b005b61024e6102df565b6102c0576040517f08c379a00000000000000000000000000000000000000000000000000000000081526004018080602001828103825260138152602001807f596f7520617265206e6f7420616c6c6f7765640000000000000000000000000081525060200191505060405180910390fd5b8060016000848152602001908152602001600020600101819055505050565b60008060009054906101000a900473ffffffffffffffffffffffffffffffffffffffff1673ffffffffffffffffffffffffffffffffffffffff163373ffffffffffffffffffffffffffffffffffffffff1614905090565b61033e6102df565b6103b0576040517f08c379a00000000000000000000000000000000000000000000000000000000081526004018080602001828103825260138152602001807f596f7520617265206e6f7420616c6c6f7765640000000000000000000000000081525060200191505060405180910390fd5b60006001600083815260200190815260200160002060000160006101000a81548160ff02191690831515021790555050565b6103ea6102df565b61045c576040517f08c379a00000000000000000000000000000000000000000000000000000000081526004018080602001828103825260138152602001807f596f7520617265206e6f7420616c6c6f7765640000000000000000000000000081525060200191505060405180910390fd5b8073ffffffffffffffffffffffffffffffffffffffff166108fc6064605f6001600087815260200190815260200160002060020154028161049957fe5b049081150290604051600060405180830381858888f193505050501580156104c5573d6000803e3d6000fd5b505050565b60016020528060005260406000206000915090508060000160009054906101000a900460ff16908060010154908060020154905083565b6001600082815260200190815260200160002060000160009054906101000a900460ff16610597576040517f08c379a00000000000000000000000000000000000000000000000000000000081526004018080602001828103825260128152602001807f446f6e6174696f6e20697320636c6f736564000000000000000000000000000081525060200191505060405180910390fd5b6001600082815260200190815260200160002060010154600160008381526020019081526020016000206002015410610638576040517f08c379a000000000000000000000000000000000000000000000000000000000815260040180806020018281038252601c8152602001807f446f6e6174696f6e20686176652072656163686564207461726765740000000081525060200191505060405180910390fd5b34600160008381526020019081526020016000206002016000828254019250508190555050565b6106676102df565b6106d9576040517f08c379a00000000000000000000000000000000000000000000000000000000081526004018080602001828103825260138152602001807f596f7520617265206e6f7420616c6c6f7765640000000000000000000000000081525060200191505060405180910390fd5b600180600084815260200190815260200160002060000160006101000a81548160ff021916908315150217905550806001600084815260200190815260200160002060010181905550505056fea26469706673582212204b8dcff3ecb8875c1f816783db160b19b1c59ceeb6e3034e8f8277f056dbaf0264736f6c63430006010033",
  "source": "pragma solidity ^0.6.1;\n\nimport \"./Accessible.sol\";\n\ncontract Crowdfounding is Accessible{\n    \n    struct Data {\n        bool _isOpen;\n        uint _target;\n        uint _collected;\n    }\n    \n    mapping(uint => Data) public items;\n    \n    function createDonation (uint _id, uint _target) public onlyOwner {\n        items[_id]._isOpen = true;\n        items[_id]._target = _target;\n    }\n    \n    function updateDonation (uint _id, uint _target) public onlyOwner {\n        items[_id]._target = _target;\n    }\n    \n    function closeDonation (uint _id) public onlyOwner {\n        items[_id]._isOpen = false;\n    }\n    \n    function donate(uint _id) public payable {\n        require(items[_id]._isOpen, \"Donation is closed\");\n        require(items[_id]._collected < items[_id]._target, \"Donation have reached target\");\n        \n        items[_id]._collected += msg.value;\n    }\n    \n    function sendFunds(uint _id, address payable _to) public payable onlyOwner {\n        _to.transfer(items[_id]._collected * 95 /100);\n    }\n    \n}",
  "sourcePath": "/home/pandu/Projek/test/contracts/Crowdfounding.sol",
  "compiler": {
    "name": "solc",
    "version": "0.6.1+commit.e6f7d5a4.Emscripten.clang"
  },
  "schemaVersion": "3.4.1",
  "updatedAt": "2021-07-19T04:26:59.843Z",
  "networkType": "ethereum",
  "devdoc": {
    "methods": {}
  },
  "userdoc": {
    "methods": {}
  }
}